:020000040800F2
:10000000580A0020510200084B210008751F000803
:1000100049210008A50D00089B24000800000000ED
:100020000000000000000000000000004F21000858
:100030004D0E0008000000004D210008512100086D
:100040006B0200086B0200086B0200086B020008DC
:100050006B0200086B0200086B0200086B020008CC
:100060006B0200086B0200086B0200086B020008BC
:100070006B0200086B0200086B0200086B020008AC
:10008000B90D0008C50D00086B0200080000000053
:100090000000000000000000000000006B020008EB
:1000A0006B020008F52100086B0200086B020008D3
:1000B0006B0200086B0200086B0200086B0200086C
:1000C0006B0200086B0200086B0200086B0200085C
:1000D0006B0200086B0200086B02000800000000C1
:1000E0006B0200086B0200086B02000800000000B1
:1000F0000000000000000000000000006B0200088B
:10010000000000006B0200086B0200086B02000890
:1001100000000000000000000000000000000000DF
:100120006B0200086B0200086B0200086B020008FB
:100130006B0200080000000000000000000000004A
:100140000000000000000000000000006B0200083A
:100150006B0200086B0200086B0200086B020008CB
:100160006B0200086B0200080000000000000000A5
:10017000000000000000000000000000000000007F
:10018000000000006B0200080000000000000000FA
:100190006B0200086B02000800F002F800F049F85A
:1001A0000AA090E8000C82448344AAF10107DA45D2
:1001B00001D100F03EF8AFF2090EBAE80F0013F0DB
:1001C000010F18BFFB1A43F00103184778260000FF
:1001D00098260000103A24BF78C878C1FAD8520790
:1001E00024BF30C830C144BF04680C6070470000B1
:1001F0000023002400250026103A28BF78C1FBD830
:10020000520728BF30C148BF0B607047632900F018
:100210005481002070471FB502F0F8FA9DE80300F2
:1002200000F092FB00F084F91FBD10B500F0E9F971
:1002300010BD00F04CFA1146FFF7EDFF02F058F93F
:1002400000F050FB03B4FFF7F0FF03BC00F00EFD1D
:100250000948804709480047FEE7FEE7FEE7FEE75A
:10026000FEE7FEE7FEE7FEE7FEE7FEE70448054996
:10027000054A064B70470000E52100089901000877
:1002800058040020580A0020580600205806002074
:1002900053EA020C00F069802DE9F04B4FF00006A4
:1002A000002B1FBFB3FA83F503FA05F424FA05F611
:1002B0005E4012BF1643B2FA82F502FA05F4C5F1A8
:1002C00020051EBF22FA05FC44EA0C04203556EA3C
:1002D000044C4FEA144418BF641C4FF000084FF060
:1002E0000009904271EB030C39D3002919BFB1FA10
:1002F00081F701FA07F6B0FA80F700FA07F6C7F1BE
:1003000020071EBF20FA07FC46EA0C062037B6FB82
:10031000F4FCA7EB0507103F07F01F0BCBF12006FD
:100320000CFA0BFB2CFA06F644BFB3460026202F2E
:10033000A4BF5E464FF0000B5BEA060C08BF4FF00F
:10034000010B19EB0B09ABFB027C48EB0608C01B49
:1003500006FB02CC0BFB03CC71EB0C01C1E70B4697
:10036000024641464846BDE8F08B13B54FF0000009
:100370004FF00001AFF30080BDE81C407047000063
:100380000FB4044910B503AA029800F0A3F810BCFA
:100390005DF814FB4C0300202DE9F0410E460446A5
:1003A000002020622046E168884730B3252805D028
:1003B000D4E901219047206A401CF2E7E168204619
:1003C00000278847050018D0A5F14100192802D858
:1003D00020354FF400673246294620462760FFF754
:1003E00015FF40B1012804D0F61D26F00706083697
:1003F000D8E7361DD6E72846DAE7206ABDE8F0815F
:1004000070B50C460546012A05D02878800600D52F
:10041000EA69002302E0012305E05B1C934202D25B
:10042000E05C0028F9D1A869E618C01AA861286A1A
:10043000184428622846AFF3008004E0D5E9012182
:1004400014F8010B9047B442F8D32846AFF300806C
:1004500070BD4FF0000200B5134694469646203911
:1004600022BFA0E80C50A0E80C50B1F12001BFF46D
:10047000F7AF090728BFA0E80C5048BF0CC05DF8D3
:1004800004EB890028BF40F8042B08BF704748BF21
:1004900020F8022B11F0804F18BF00F8012B704795
:1004A00070477047704710B5436913B1AFF30080D0
:1004B00001E0FFF7A5FF012010BD127800F1240133
:1004C0000A7000224A700122EDE711684FF0FF32F6
:1004D000E9E70000074B70B50D467B4400F011F8CA
:1004E0000446284600F020F810B14FF0FF3070BDF0
:1004F000204670BDDF1F000001694A1C02610878B8
:10050000704700B58FB0CDE9013100210591054953
:100510007944CDE9031011466846FFF73DFF0FB05F
:1005200000BD0000E5FFFFFF007B00F0800070478A
:1005300010B542485421FFF78CFF41485421FFF782
:1005400088FF40485421FFF784FF3F493B483C4A1D
:100550003F4B08603D490A603A491960531C0365E6
:10056000481C1065012008653B48344A39A178448D
:1005700000F01CF920B9384878440A3800F0BBF97B
:1005800037482F4A35A1784400F010F920B9344893
:1005900078440A3800F0AFF932482A4A2FA178444B
:1005A00000F004F920B92F4878440A3800F0A3F984
:1005B00040232248DC000021224600F0D4F820B17C
:1005C00025487844543800F096F91D4822464023C7
:1005D000002100F0C8F820B121487844543800F0D8
:1005E0008AF9184822461023002100F0BCF80028A0
:1005F00006D01C487844BDE81040563800F07BB95E
:1006000010BD104870B5006D20F001040B4800F0DB
:1006100043F90B4800F040F90A4800F03DF909E0C1
:10062000206D20F00105204600F036F9204600F04C
:1006300073F82C46002CF3D170BD0000F8020020A6
:100640004C030020A00300202000002024000020F4
:100650002800002072000000C42200007700000083
:10066000B02200009C2200000EB5CDE9000100F090
:10067000DDFA029069460120ABBE0EBD08B56946A1
:1006800000900220ABBE08BD1FB58DE8070069468B
:100690000520ABBE04B010BD1FB58DE80F00694644
:1006A0000620ABBEF6E708B5694600900920ABBE50
:1006B00008BD1CB5CDE9000169460A20ABBE1CBDD2
:1006C000704708B5694600900C20ABBE08BD754662
:1006D00000F018F9AE4605006946534620F00700C1
:1006E000854618B020B5FFF7C1FDBDE820404FF0AA
:1006F00000064FF000074FF000084FF0000B21F00C
:100700000701AC46ACE8C009ACE8C009ACE8C009D8
:10071000ACE8C0098D46704770B50446051F00F06F
:10072000F7F80068002C14BF446870BD002C18BF97
:10073000AC423CBF20466468F8D301680A18AA425C
:1007400018BF456003D12A68054611440160286836
:100750004119A1421CBF6C6070BD6168696021686D
:100760000844286070BD70B5C468A50713D0650241
:1007700011D4B2F5807F09D0B2F5007F06D0B2F572
:10078000806F08D1012300F1240106E05D1E6FF0A7
:100790007F46B54201D3012070BD0161C361416054
:1007A00024F470611143C160002070BD2DE9F04157
:1007B0000C4607461646104600F06EF82078611C7D
:1007C00061280AD0722802D077283CD102E00125A6
:1007D000002405E00225042402E0082448F2020572
:1007E00011F8010B2B2806D0622809D011F8010C52
:1007F00074280AD00BE045F0030544F00204EFE74B
:1008000045F0040544F00104EAE744F010043846DA
:100810002146FFF729FF411C15D00021316171608D
:100820004FF40071F560F1617061200704D5304626
:100830000222002100F0E6F8306D40F00100306542
:100840003046BDE8F0810020FBE72DE9F0410D4680
:100850000646104C206DC10704D0410804D020F09A
:100860000104F7E722460EE0542000F09CF8070050
:100870000ED0206D47F00101084354212065384611
:10088000FFF7E7FD3A4629463046BDE8F0418DE7DF
:100890000020D6E7F80200202DE9F04704464FF08B
:1008A00000094FF0FF37C568D4E90486A80707D0D0
:1008B000204600F057F93046FFF7E0FE002802DA44
:1008C0003846BDE8F087280502D54046FFF724FFEB
:1008D0004C212046FFF7BDFD206D20F00100206572
:1008E0004846EEE710B50446AFF300802046BDE869
:1008F0001040FFF7A7BC10B500F07EF9BDE810402E
:1009000000F074B900487047F403002070470000FD
:1009100000487047FC0300207047704770477047DD
:1009200038B504460A4600206946AFF30080002827
:1009300008BF38BD02460099204600F0A4F9012006
:1009400038BD012000F0F3B9F8B5AFF300800546DB
:1009500000200C46102000BF0646A819A0420DD961
:10096000324669460020AFF30080070008BF00F060
:10097000DEF90098A04218BF0546C419FFF7C8FF6A
:1009800005600746F01D20F007004619284600F0D4
:1009900073F9B44208BFF8BDA21B31463868BDE800
:1009A000F84000F070B970B50646FFF7B1FF056872
:1009B00006F10B0020F00704B4429CBF002070BD7C
:1009C0002B466A68BAB11068A04210D304F108013E
:1009D00088423CBF5068586007D351681019416085
:1009E0001168091B016058601460101D70BD13462A
:1009F0005268002AE7D121462846FFF791FF0028D8
:100A0000DED170BD2DE9F041044616460D4647691A
:100A1000007B80072ED03846FFF745FE50BB3EB323
:100A2000012E02D0022E25D104E0204600F045F927
:100A300005441DE03846FFF744FEE168002841F018
:100A40001001E16005DA204600F058F80120BDE809
:100A5000F081C9030BD56268E16A914200D8114662
:100A6000A26911442269891A814200DD08460544C1
:100A7000002D01DA0220EAE7E16A6068E26881425B
:100A800006D29103E06203D522F4003141F0100256
:100A9000A6690027AE4213DCE16A814201D90B4608
:100AA00000E0034603EB060C2369ACEB030CAC45FA
:100AB00006DD814201D98C4600E084469C4505D183
:100AC000A760276042F02000A5620DE0AD1BE6693B
:100AD000AE1B8142A66000D90846C01A281A2060C1
:100AE0005819606022F0200003490840E0600020AF
:100AF00084F84870ABE70000BFCFD7FFC16821F48E
:100B0000001141F08001C1600021816001607047E7
:100B10002DE9F047814614460E464FF0FF38324823
:100B2000D5685769054209D03846A169FFF7C1FD6C
:100B3000002811DB2C48C0430540E5602B463246B7
:100B400049463846FFF7A0FDA16920F00042B21ADD
:100B500011440028A16103D02046FFF7CFFF404693
:100B6000BDE8F08770B504460569C06A61688842CF
:100B700000D80846E16821F42011E160C90312D5CC
:100B8000A84208D02246411B2846FFF7C1FF10B1FA
:100B90004FF0FF3070BD0020E562C4E90150E0680D
:100BA00020F48030E060002070BD10B50446C068BD
:100BB00020F02000E060A16AA06988420DD02046A4
:100BC000FFF7D0FFE06820F4405040F01000E060F4
:100BD000A06AA0612069E062606044F24001E068C0
:100BE0008843E06010BD000010000200002801D022
:100BF00000F03CB87047000010B5014602A000F0BC
:100C00007DF8012010BD000053494752545245441D
:100C10003A2052656469726563743A2063616E2795
:100C200074206F70656E3A200000000010B5431C00
:100C300002E010F8011B71B18107FAD14FF00132C7
:100C400002C88C1A8C4314EAC211F9D0C01A0A06E1
:100C500003D0C01E10BDC01A10BD0A0401D0801EF2
:100C600010BD0902FCD0401E10BD00000149182033
:100C7000ABBEFEE72600020000210160C0E90110C2
:100C8000704710207047034640688C46002818BF04
:100C900088423CBF03464068F8D31868184488422D
:100CA00007D00CF1030020F00700001D411A521A72
:100CB0000146081D0A60FFF72FBD10B50146C26846
:100CC000900703D0900607D5886A0AE000F03EF846
:100CD00001210160881E10BD8B69486818440B69AA
:100CE000C01A91F848301BB191F84910401A10BD54
:100CF0001103FCD50028FADD401E10BD70B5054675
:100D00000C460A2000E06D1C00F018F835B1287878
:100D10000028F8D102E0641C00F010F814B120782B
:100D20000028F8D1BDE870400A2000F007B810B5DF
:100D300000F010F8BDE81040FFF758BF08B569464D
:100D40008DF800000320ABBE08BD000000487047CE
:100D5000F403002010B5012805D0002103A0FFF7FF
:100D6000CDFF012010BD09A1F8E70000534947520B
:100D7000544D454D3A204F7574206F66206865616B
:100D800070206D656D6F7279000000003A20486533
:100D90006170206D656D6F727920636F727275700E
:100DA00074656400FEE70022134601E08354521C80
:100DB0008A42FBDB70470000014800F063B8000086
:100DC00038020020014800F05DB8000098020020C1
:100DD00001681823CAB2103AB2FBF3F2054B6FF365
:100DE0000901032A9B5CC36500D9091D816508467A
:100DF000704700001628000810B5014600208B69D6
:100E00008A6A4FF0C07453B1B3F5005F15D072B168
:100E1000012A0CD0022A0AD0032A09D104E01AB10F
:100E2000012A06D0022A03D1C96AC90100D50120CE
:100E300010BDC96AA142FAD010BD002AF7D0012A1C
:100E4000F2D0022AF3D0032AF3D010BD704700007D
:100E50002DE9F04100240546084F0A2607E0B8783E
:100E6000002808D10A2000F047F9641CE4B2B5FB61
:100E7000F6F0A042F3D8BDE8F081000000000020A9
:100E800072B6FEE72DE9F84304464FF00009CDF8AD
:100E9000009063484FF41651A56D0068B0FBF1F760
:100EA0002E6894F85C10082000FA01F131420FD04E
:100EB00021680A6852070BD50A6822F004020A600A
:100EC00094F85C108840A860606D40F00100606597
:100ED00094F85C104FF0010808FA01F0304208D095
:100EE00021684969090604D5A860606D40F00200D8
:100EF000606594F85C1004208840304208D0216876
:100F00000968890704D5A860606D40F00400606539
:100F100094F85C1010208840304218D0216809688D
:100F2000090714D5A86020680168490304D5006842
:100F3000000308D5A16C07E00168C90503D4016866
:100F400021F008010160216C09B12046884794F81E
:100F50005C1020208840304231D021680968C906E1
:100F60002DD5A86094F8350005282068016806D0C2
:100F7000490347D5006800031DD4616C1CE021F0D3
:100F8000160101602068416921F080014161206CF7
:100F900008B9A06C20B12068016821F00801016047
:100FA00094F85C103F208840A86084F8358084F86D
:100FB0003490216D1FE0E16B09B120468847606DD8
:100FC00000282BD0606DC00714D0052084F83500B0
:100FD0002068016821F0010101600098401C009028
:100FE000B84203D820680068C007F6D184F835807D
:100FF00084F83490E16C002910D001B02046BDE89F
:10100000F04308470168C905D5D4016821F01001F3
:10101000016084F8358084F83490CCE7BDE8F8832B
:101020001C0000202DE9F041044600F071F906464D
:101030005CB1022084F83500002584F83450206823
:10104000016821F0010101600DE00120BDE8F0819F
:1010500000F05EF9801B052805D92020606503207B
:1010600084F83500F2E720680068C007F0D12268F4
:10107000116820480140D4E901031843D4E903363C
:101080003343184363691843A3691843E36918435A
:10109000236A18430843616A042903D1D4E90B1376
:1010A00019430843106020684069666A20F0070110
:1010B00030460E43012704280CD1A06A0643E06A9B
:1010C00040B12046FFF798FE20B14020606584F8CB
:1010D0003570BAE7206846612046FFF779FE94F83C
:1010E0005C203F2191408160656584F83570002067
:1010F000ACE700003F8010F070B5044600F008F93E
:101100000546601C02D004480078044400F000F951
:10111000401BA042FAD370BD100000202DE9F84F0B
:10112000DFF8B8A10022012403254FF00F090AF1CE
:10113000040BAAF1040E00BF0B6804FA02F6334058
:10114000B34273D10F7907F00307012F01D0022FAB
:1011500016D187684FEA420805FA08FC27EA0C070F
:10116000D1F80CC00CFA08FC4CEA070CC0F808C017
:101170004768B7430E79C6F3001696403E43466073
:101180000E79F643B6070DD0C768560005FA06FC7F
:1011900027EA0C07D1F808C00CFA06FC4CEA070C49
:1011A000C0F80CC00E7906F00306022E10D1D60846
:1011B00000EB8608D8F8206057074FEAD76C09FA89
:1011C0000CF7BE430F6907FA0CF73743C8F82070D5
:1011D00006684FEA420C05FA0CF7BE430F7907F098
:1011E000030707FA0CF7374307604E6816F4403FD1
:1011F0006DD03B4E376847F480473760366822F041
:10120000030706F480460096364E07EB060CDCF822
:10121000086897073F0F09FA07F826EA0806DFF87B
:10122000C880404503D14FF000081EE04FE0DFF8D2
:10123000BC80404502D14FF0010816E0DFF8B080D5
:10124000404502D14FF002080FE0DFF8A88040458A
:1012500002D14FF0030808E0DFF89C80404502D13E
:101260004FF0040801E04FF0070808FA07F848EAD1
:101270000608CCF80888DAF800605746D1F804C0B0
:101280009E435FEACC2C00D51E433E60DBF8006035
:101290005F46D1F804C09E435FEA8C2C00D51E4304
:1012A0003E60DEF800607746D1F804C09E435FEAF6
:1012B0008C3C00D51E433E60084F083F3E68D1F885
:1012C00004C09E435FEACC3C00D51E433E60521CE6
:1012D000102AFFF431AFBDE8F88F0000083C014050
:1012E0004438024000300140000002400004024047
:1012F00000080240000C0240001002400069084053
:1013000000D0012070470AB1816170470904FBE7F2
:101310000148806870470000100000200248816882
:101320000278114481607047100000200B4810B50E
:10133000016841F400710160016841F4806101605D
:10134000016841F480710160032000F06FF80F2004
:1013500000F006F800F024F8002010BD003C024028
:1013600070B50D4D04464FF47A712878B1FBF0F05A
:101370000A490968B1FBF0F000F00AFB48B9102CEB
:1013800007D200222146501E00F030F800206C6089
:1013900070BD012070BD0000100000201C00002066
:1013A0000A4808B5016841F480410160006800F412
:1013B000804000900548001F016841F080510160A5
:1013C000006800F08050009008BD000044380240E2
:1013D000002809DB00F01F02012191404009800034
:1013E00000F1E020C0F8001170470000F0B40E4B8F
:1013F0001B680C46C3F30223C3F10705042D00D973
:101400000425191D072901D2002300E0DB1E012657
:1014100006FA05F1491E214099409E40761E16406D
:101420003143F0BC01F03AB80CED00E0064900F0A1
:10143000070208684FF6FF03184040EA0220034AFB
:1014400010430860704700000CED00E00000FA0552
:101450002DE9F0470E46050065D0DFF81481D8F875
:101460000000F7B200F00700B04207D288F8007021
:10147000D8F8000000F00700B04254D128683D4C75
:10148000810712D5400703D5206840F4E050206062
:101490002878000703D5206840F460402060206869
:1014A000A96820F0F000084320602878C0072DD0FC
:1014B000304968680839012812D0022813D003285F
:1014C00011D00968890700292DDA216821F003016C
:1014D00001432160FFF71CFF814641F2883A0EE08C
:1014E00009688903EFE709688901ECE7FFF710FF56
:1014F000A0EB0901514502D90320BDE8F08720681F
:10150000696800F00C00B0EB810FEFD1D8F8001043
:10151000404601F00701B14207D90770006800F0AA
:101520000700B04201D00120E7E72878400705D541
:101530002068E96820F4E05008432060287800071C
:1015400006D52068296920F4604040EAC100206087
:1015500000F038F82168084AC1F30311515CC84013
:101560000649086006480068FFF7FAFE0020C4E755
:10157000003C0240083802401E2800081C000020E1
:10158000140000200448054900680968044AC1F3B2
:101590008221515CC84070471C000020083802407E
:1015A0002E2800080448054900680968044AC1F368
:1015B0004231515CC84070471C000020083802408E
:1015C0002E280008154810B5006810F00C021448C9
:1015D00013D04110042A0FD0082A0ED10F4C241F1B
:1015E0002268236802F03F025B0207D52068C0F33F
:1015F0008810A0FB010106E0084610BD2168C1F378
:101600008811A1FB00010023FEF742FE2168C1F30F
:101610000141491C4900B0FBF1F010BD08380240FF
:101620000024F4002DE9F84F04006ED02078DFF894
:101630004C93C007A9F104054AD009F104000168E0
:10164000C1F38101012908D00068C0F3810002289C
:101650000AD1D9F80000400206D52868800337D5A2
:1016600060680028E1D033E06068B0F5803F10D0BA
:10167000B0F5A02F286810D020F4803028602868AA
:1016800020F4802028606068A8B1FFF741FE06467C
:101690000DE0286840F48030F4E740F480202860B2
:1016A000F7E700BFFFF734FE801B642873D8286873
:1016B0008003F7D50CE0FFF72BFE064605E000BFE0
:1016C000FFF726FE801B6428F0D828688003F7D433
:1016D0002078DFF8AC8280074FF0000A3ED5A7489B
:1016E000001D016811F00C0F08D00068C0F38100E4
:1016F00002280BD1D9F80000400207D428688007DF
:1017000016D5E068012800D112E033E1E068B8B1F5
:101710000120C8F80000FFF7FBFD064605E000BF0A
:10172000FFF7F6FD801B0228C0D828688007F7D590
:101730002868216920F0F80040EAC10028600DE027
:10174000C8F800A0FFF7E4FD064604E0FFF7E0FD5F
:10175000801B02281FD828688007F7D4207800074C
:1017600022D5864F87486169703771B101210160C8
:10177000FFF7CEFD064604E0FFF7CAFD801B0228F6
:1017800009D838688007F7D50EE0C0F800A0FFF749
:10179000BFFD064605E082E0FFF7BAFD801B022888
:1017A0007DD838688007F7D42078400768D5DFF8FF
:1017B000CCB100270BF13C0BDBF80000C0000BD4D0
:1017C000DBF8001041F08051CBF80010DBF800008E
:1017D000012700F0805000906B4E3068C00510D497
:1017E000306840F480703060FFF792FD009005E0B3
:1017F000FFF78EFD0099401A022850D83068C005C6
:10180000F6D55E4EA0686C3601280FD005283068EA
:1018100010D020F001003060306820F0040030600B
:10182000A068B8B1FFF774FD00900FE0306840F099
:101830000100F4E740F004003060F7E7FFF768FDCF
:101840000099411A41F28830814266D83068800799
:10185000F4D50EE0FFF75CFD009007E0FFF758FDC0
:101860000099411A41F28830814256D83068800789
:10187000F4D42FB1DBF8001021F08051CBF8001028
:10188000A069C8B33D49091D0968C1F38101022956
:101890004AD00228504607D0C8F8600000E03CE07B
:1018A000FFF736FD04463BE04746C8F86000FFF707
:1018B0002FFD064605E000BFFFF72AFD801B02282A
:1018C0002BD828688001F7D4D4E907010843A16A1E
:1018D0002E4A490802EB0141626A41EA821108433B
:1018E00094F82C1040EA0161C9F800100120386614
:1018F000FFF70EFD044606E03EE000BFFFF708FDDF
:10190000001B022809D828688001F7D534E000BF01
:10191000FFF7FEFC001B022802D90320BDE8F88F68
:1019200028688001F4D427E00128F7D0D9F8000016
:10193000E26900F4800191421CD1226A00F03F016B
:10194000914217D147F6C071626A0140B1EB821F24
:1019500010D1A26A4FF0FF3300F4403103EB520282
:10196000B1EB024F06D194F82C1000F07060B0EB90
:10197000016F01D00120D1E70020CFE704380240F9
:1019800000004742800E4742007000400000FFFF09
:1019900010B5401EB0F1807F01D3012010BD4FF083
:1019A000E02460610F21601700F078FD0020A06145
:1019B00007202061002010BD7047704710B504005B
:1019C00003D094F83D0010B107E0012010BD0020C5
:1019D00084F83C00204600F01FF8022084F83D0007
:1019E000211D206800F00CFC012084F8460084F8DA
:1019F0003E0084F83F0084F8400084F8410084F8F9
:101A0000420084F8430084F8440084F8450084F8D8
:101A10003D00002010BD000008B500680B49884259
:101A200012D10B48016841F40031016000680022C6
:101A300000F40030009011461920FFF7D7FCBDE8F4
:101A400008401920FFF7C4BC08BD00000044014055
:101A50004438024090F83D10012901D00120704720
:101A6000022180F83D100168CA6842F00102CA6094
:101A700000680E4988420ED0B0F1804F0BD00C495F
:101A8000884208D00B49884205D00B49884202D0D1
:101A90000A49884204D1816801F00701062903D070
:101AA000016841F001010160002070470000014021
:101AB0000004004000080040000C004000400140CD
:101AC00070472DE9F04104460068C66805694FF08B
:101AD0000007A90713D5B10711D5F91E016101202F
:101AE0002077206880698007204602D0FFF7E8FF52
:101AF00004E000F07EF8204600F07CF827776807C5
:101B000016D5700714D521686FF004000861022013
:101B100020772068806910F4407F204602D0FFF7CC
:101B2000CFFF04E000F065F8204600F063F8277767
:101B3000280715D5300713D521686FF00800086114
:101B4000042020772068C0698007204602D0FFF774
:101B5000B7FF04E000F04DF8204600F04BF827777F
:101B6000E80616D5F00614D521686FF0100008615C
:101B7000082020772068C06910F4407F204602D0FA
:101B8000FFF79EFF04E000F034F8204600F032F842
:101B90002777E80708D0F00706D021686FF001002A
:101BA0000861204600F028F8280608D5300606D53A
:101BB00021686FF0800008612046FFF7FDFE68068F
:101BC00008D5700606D521686FF0400008612046F0
:101BD00000F0E2F8A8060AD5B00608D521686FF033
:101BE000200008612046BDE8F041FFF7E6BEBDE8F1
:101BF000F0817047704700002DE9F04100685649B8
:101C000088424FD1554C2078E0B10F15544E002535
:101C100001281ED0022845D139463046FFF76EFB19
:101C2000F0B339463046FFF769FB01283AD1E06846
:101C3000401CE060012844D04A4E032851D00728B8
:101C400066D15DE0BDE8F0414449891C002000F008
:101C5000A5B942490020891C00F0A0F93946304658
:101C6000FFF74CFB10B9A068401CA0603946304615
:101C7000FFF744FB012802D1E068401CE060D4E992
:101C8000020188420ED164280ED0C8280ED0B0F5CB
:101C9000967F07D134A000BFFEF772FBA56000E07D
:101CA00006E0E560BDE8F08133A0F5E735A0F3E795
:101CB000E07808B90120E070A068401CC4E9020582
:101CC000F0E72849A0683239012808D00328E9D173
:101CD000622220790A54401C2071A560E2E761224B
:101CE000F7E763791F49581C60712279A1F132002E
:101CF00000F060FC1B4821793238FFF754F8257159
:101D0000607920213154401C6071A079401CA07181
:101D1000E0680728C6D920790722304400F8015C22
:101D20006179A079081A90FBF2F302FB1300C2B2AA
:101D3000E2710C4800F0B6FA002704E0F15D14A04F
:101D4000FEF71EFB7F1C6079801E8742F6DB11A028
:101D5000FEF716FBE570A5E70044014000000020F7
:101D600000000240DE000020436F6D6520746F208C
:101D70006D65210D0A0000004669676874210D0A2F
:101D80000000000052657472656174210D0A000044
:101D9000256300002E0D0A00704770B5040004D0C2
:101DA00094F84100002510B106E0012070BD84F8D0
:101DB0004050204600F024F8242084F84100206898
:101DC000C16821F40051C160204600F0A7FA2068E4
:101DD000016921F4904101612068416921F02A01E3
:101DE00041612068C16841F40051C16065642020F0
:101DF00084F8410084F842006563002070BD000053
:101E00002DE9F04186B0064614216846FEF721FB15
:101E10002B493068884250D12A480024016841F497
:101E200000310160006800F400300590254810384A
:101E3000016841F0010101600068694600F001009D
:101E400005900C2000900220CDE9010403200390AE
:101E5000072004901C48FFF761F91D4D1B484FF007
:101E600000672860C5E901744FF48068C5E903483C
:101E70006C61AC61EC612C6228466C62FFF7D2F8B1
:101E800008B1FEF7FDFFF563AE63114D0F486035F5
:101E90001830E5E802074020A5E811010C4845F894
:101EA00014496030AC61EC612C626C62FFF7BAF8E7
:101EB00008B1FEF7E5FFB563AE6306B0BDE8F0819B
:101EC0000044004040380240000002408860024068
:101ED000380200202DE9F843044690F84100984666
:101EE00016460D46202802D00220BDE8F88385B1B1
:101EF0007EB100206064212084F84100FFF708FAD9
:101F0000A6848146E684A0682027B0F5805F02D0D1
:101F100003E00120E9E7206910B12E4600250EE01C
:101F200000260CE08021204600F07EFAA8B9C6B158
:101F300016F8010B21684860E08C401EE084E08CBC
:101F40004B464FF00002CDF800800028EAD14FF058
:101F50004001204600F068FA40B184F84170032047
:101F6000C3E735F8020BC0F30800E3E784F84170DB
:101F70000020BAE7FEE7000010B5074C04EB0010A4
:101F800001608280837100210172C171417281728E
:101F9000C172017310BD00002C0000202DE9F0413A
:101FA0000D461C49012601EB0014E07960B10027C1
:101FB000012813D002280FD1E07AE8B1401E10F0BA
:101FC000FF00E07218D019E0A1882068FFF796F9A9
:101FD000A179884200D1E671BDE8F081A18820682E
:101FE000FFF78CF9A179884204D16420E0720220C5
:101FF000E071F1E7E771EFE703202870A18820681E
:10200000FFF77CF9A1798842E6D0E07A0028F1D088
:102010002E70EFE72C0000200D4808B5016841F450
:10202000001101600068002200F4001000901146C9
:102030001020FFF7DBF91020FFF7CAF90022114644
:102040001120FFF7D3F9BDE808401120FFF7C0B910
:102050003038024030B587B014216846FEF7F9F9F0
:102060001B480024016841F004010160016801F08F
:1020700004010591016841F080010160016801F0EF
:1020800080010591016841F00101016000684FF491
:10209000881500F0010005904FF40050CDE90005CF
:1020A000694602940B48FFF739F82020CDE9000576
:1020B000094D694602942846FFF730F82815CDE906
:1020C0000004694628460294FFF728F807B030BD9F
:1020D0003038024000080240000002400B4810B5B2
:1020E0000949016042F20F71416000216322C0E999
:1020F000021201618161FFF761FC002803D0BDE895
:102100001040FEF7BDBE10BD00440140A8010020F4
:102110000C4810B50A4901604FF4E13141600021DB
:1021200081600C22C160C0E904128161C161FFF7C6
:1021300034FE002803D0BDE81040FEF7A1BE10BD5C
:1021400000440040F0010020FEE7FEE770477047C2
:10215000FFF7E4B830B593B030216846FEF779F95F
:1021600014210CA8FEF775F91C480025016841F000
:1021700080510160006800F080501190184801689B
:1021800041F4404101600068022400F44040119095
:10219000012000904FF4A02001906005CDE9064099
:1021A00008AA0420642182E813000B906846FFF718
:1021B00039FA08B172B6FEE70CA90F2081E83100A8
:1021C0004FF48050CDE90F0503210CA8FFF740F92B
:1021D000002801D072B6FEE713B030BD403802408F
:1021E000007000400248016841F4700101607047CE
:1021F00088ED00E00148FFF764BC0000A801002062
:10220000F0B50268204B214C9F03214D214E98428E
:1022100007D0B84205D0A04203D0A84201D0B042B6
:1022200004D122F0700C4A6842EA0C02984210D0A5
:10223000B8420ED0A0420CD0A8420AD0B04208D07A
:10224000154CA04205D0154CA04202D0144CA0421F
:1022500003D122F44074CA6822434C6922F0800200
:10226000224302608A68C2620A688262984201D18F
:1022700009690163012141610169C90703D001694D
:1022800021F001010161F0BD0000014000040040A7
:1022900000080040000C00400040014000440140A4
:1022A0000048014070B500231A250DE0C45CA4F17C
:1022B0006106192E07D8A41A473C94FBF5F605FBD6
:1022C00016446134C4545B1C8B42EFDB70BD016863
:1022D0000C3151E8002F22F4907241E80023002BCA
:1022E000F5D10168143151E8002F22F0010241E8D4
:1022F0000023002BF5D1016B012909D101680C31B4
:1023000051E8002F22F0100241E80023002BF5D104
:10231000202180F8421000210163704770B5044607
:1023200000680169E26821F44051114301612169AB
:10233000A068E26908436169114308432168CA68DB
:1023400049F20C639A430243CA6020684169A2695A
:1023500021F440711143416131492068884202D023
:102360003049884202D1FFF71DF901E0FFF70AF971
:10237000E2690023192164253226B2F5004F626814
:1023800028D0A0FB0101930F9200FDF781FF0146C9
:10239000B0FBF5F06FF01802504301EB800006EB44
:1023A0000010B0FBF5F000F0F002B1FBF5F002EB2D
:1023B0000012B1FBF5F06FF01803584301EB8000F9
:1023C00006EB0010B0FBF5F000F00F0021681044A0
:1023D000886070BDA0FB010192185B41FDF758FFBA
:1023E0000146B0FBF5F00201B1FBF5F06FF0180308
:1023F000584301EB800006EBC000B0FBF5F000F0A5
:10240000F80002EB4002B1FBF5F0584301EB80000D
:1024100006EBC000B0FBF5F000F00700D6E70000C7
:1024200000100140001401402DE9F843984617467A
:102430000D460446089E24E0701C22D0FEF768FF7B
:10244000A0EB0800B0421AD8CEB12068C168490795
:1024500017D5802D15D0402D13D00168C943090729
:102460000FD401680025406800902046FFF72FFF39
:102470000820606484F840500120BDE8F883032000
:10248000FBE72068006835EA000004D00020B8426D
:10249000D2D00020F1E70120F9E7FEE70907090E95
:1024A000002804DB00F1E02080F80014704700F001
:1024B0000F0000F1E02080F8141D704713B54FF0B5
:1024C000FF33012269460248FFF704FD00981CBD56
:1024D000F001002030B5002306E0C45CCD5CAC42C6
:1024E00001D0002030BD5B1C9342F6DB012030BDE3
:1024F000FEF71CFFFFF72EFEFFF7ACFDFFF78CFD8C
:10250000FFF706FEFFF7EAFD26496FF001000968B4
:1025100008612448FFF79EFA00234FF40052224935
:102520001846FFF729FD214C214D20780028FCD1C9
:10253000A078012802D0032808D009E0607802289A
:1025400001D2401C00E00020607001E001202070FA
:102550006078B0B101281CD00228E6D101222021E8
:102560002846FEF7D0FE40F6B8363046FEF770FC3F
:10257000002220212846FEF7C6FE3046FEF768FC02
:10258000D3E7012220212846FEF7BDFE4FF47A76DC
:10259000EBE7012220212846FEF7B5FE4FF4FA664C
:1025A000E3E70000A801002000080240000000202E
:1025B0000000024070B51C460D460646012A64D054
:1025C000022A75D0032A71D0042A70D169A1FFF7BD
:1025D00081FF08B162202855042268A13046FFF728
:1025E00079FF08B163202855042266A13046FFF721
:1025F00071FF08B166202855042264A13046FFF718
:1026000069FF08B168202855042262A13046FFF70F
:1026100061FF08B16A202855042260A13046FFF707
:1026200059FF08B16C20285504225EA13046FFF7FF
:1026300051FF08B17020285504225CA13046FFF7F5
:1026400049FF08B17120285504225AA13046FFF7EE
:1026500041FF08B176202855042258A13046FFF7E3
:1026600039FF08B178202855042256A13046FFF7DB
:1026700031FF08B179202855042254A13046FFF7D4
:1026800029FF002834D07A2031E0012251A1FFF740
:1026900021FF08B16520285501224FA13046FFF7E0
:1026A00019FF002824D0742021E001E021E01FE080
:1026B00002224AA1FFF70EFF08B16120285502222D
:1026C00047A13046FFF706FF08B1692028550222CE
:1026D00044A13046FFF7FEFE08B16D2028550222C6
:1026E00041A13046FFF7F6FE002801D06E202855A4
:1026F00070BD03223DA1FFF7EDFE08B1642028550F
:1027000003223BA13046FFF7E5FE08B167202855BC
:10271000032238A13046FFF7DDFE08B16B202855B3
:10272000032235A13046FFF7D5FE08B16F202855AA
:10273000032232A13046FFF7CDFE08B172202855A2
:1027400003222FA13046FFF7C5FE08B1732028559C
:1027500003222CA13046FFF7BDFE08B17520285595
:10276000032229A13046FFF7B5FE0028C0D077200C
:10277000BDE70000626161610000000062616261AA
:102780000000000061616261000000006161616140
:10279000000000006162626200000000616261612D
:1027A000000000006162626100000000626261621C
:1027B000000000006161616200000000626161620E
:1027C00000000000626162620000000062626161FC
:1027D0000000000061000000620000006162000073
:1027E000616100006262000062610000626161007C
:1027F0006262610062616200626262006162610045
:102800006161610061616200616262004FF040706D
:10281000E1EE100A704700061016000610160000C0
:102820000000000000000102030406070809000080
:102830000000010203043A7474003A7474003A749C
:102840007400000064280008000000202C00000034
:10285000D4010008902800082C0000202C0A000059
:10286000F00100080000000000000000000000006F
:102870000000000001000000100000000000000047
:102880000024F40000000000000000000000000030
:040000050800019955
:00000001FF
