:020000040800F2
:10000000480900203902000887160008B1140008CA
:10001000851600082F040008ED18000800000000F5
:100020000000000000000000000000008B16000827
:10003000D504000800000000891600088D1600088D
:10004000530200085302000853020008530200083C
:10005000530200085302000853020008530200082C
:10006000530200085302000853020008530200081C
:10007000530200085302000853020008530200080C
:10008000410400084D04000853020008000000006D
:100090000000000000000000000000005302000803
:1000A00053020008311700085302000853020008E9
:1000B00053020008530200085302000853020008CC
:1000C00053020008530200085302000853020008BC
:1000D0005302000853020008530200080000000009
:1000E00053020008530200085302000800000000F9
:1000F00000000000000000000000000053020008A3
:1001000000000000530200085302000853020008D8
:1001100000000000000000000000000000000000DF
:10012000530200085302000853020008530200085B
:100130005302000800000000000000000000000062
:100140000000000000000000000000005302000852
:10015000530200085302000853020008530200082B
:1001600053020008530200080000000000000000D5
:10017000000000000000000000000000000000007F
:100180000000000053020008000000000000000012
:10019000530200085302000800F002F800F03CF897
:1001A0000AA090E8000C82448344AAF10107DA45D2
:1001B00001D100F031F8AFF2090EBAE80F0013F0E8
:1001C000010F18BFFB1A43F001031847A81A0000DB
:1001D000C81A0000103A24BF78C878C1FAD852076C
:1001E00024BF30C830C144BF04680C6070470000B1
:1001F0000023002400250026103A28BF78C1FBD830
:10020000520728BF30C148BF0B6070471FB501F0CF
:100210001BFD1FBD10B510BD00F0CFF81146FFF754
:10022000F5FF01F083FB00F0EDF803B4FFF7F2FFF8
:1002300003BC00F0F5F80000094880470948004772
:10024000FEE7FEE7FEE7FEE7FEE7FEE7FEE7FEE786
:10025000FEE7FEE704480549054A064B70470000E3
:1002600021170008990100084803002048090020D0
:10027000480500204805002053EA020C00F0698080
:100280002DE9F04B4FF00006002B1FBFB3FA83F5AA
:1002900003FA05F424FA05F65E4012BF1643B2FADB
:1002A00082F502FA05F4C5F120051EBF22FA05FC0D
:1002B00044EA0C04203556EA044C4FEA144418BFB3
:1002C000641C4FF000084FF00009904271EB030CE2
:1002D00039D3002919BFB1FA81F701FA07F6B0FA4C
:1002E00080F700FA07F6C7F120071EBF20FA07FCC7
:1002F00046EA0C062037B6FBF4FCA7EB0507103FD7
:1003000007F01F0BCBF120060CFA0BFB2CFA06F6BC
:1003100044BFB3460026202FA4BF5E464FF0000B1B
:100320005BEA060C08BF4FF0010B19EB0B09ABFBA6
:10033000027C48EB0608C01B06FB02CC0BFB03CC7F
:1003400071EB0C01C1E70B46024641464846BDE849
:10035000F08B13B54FF000004FF00001AFF30080B9
:10036000BDE81C4070474FF0000200B513469446AC
:100370009646203922BFA0E80C50A0E80C50B1F1FD
:100380002001BFF4F7AF090728BFA0E80C5048BF11
:100390000CC05DF804EB890028BF40F8042B08BFAF
:1003A000704748BF20F8022B11F0804F18BF00F8AB
:1003B000012B7047704770477047754600F02CF866
:1003C000AE4605006946534620F00700854618B042
:1003D00020B5FFF73FFFBDE820404FF000064FF08B
:1003E00000074FF000084FF0000B21F00701AC466A
:1003F000ACE8C009ACE8C009ACE8C009ACE8C00989
:100400008D46704710B50446AFF300802046BDE826
:100410001040FFF70ABF000000487047E8020020C4
:1004200001491820ABBEFEE7260002007047FEE738
:100430000022134601E08354521C8A42FBDB7047C2
:10044000014800F063B8000028020020014800F0D5
:100450005DB800008802002001681823CAB2103A73
:10046000B2FBF3F2054B6FF30901032A9B5CC365F2
:1004700000D9091D8165084670470000521C00081C
:1004800010B5014600208B698A6A4FF0C07453B1E1
:10049000B3F5005F15D072B1012A0CD0022A0AD040
:1004A000032A09D104E01AB1012A06D0022A03D195
:1004B000C96AC90100D5012010BDC96AA142FAD09C
:1004C00010BD002AF7D0012AF2D0022AF3D0032A65
:1004D000F3D010BD704700002DE9F041002405461F
:1004E000084F0A2607E0B878002808D10A2000F053
:1004F00047F9641CE4B2B5FBF6F0A042F3D8BDE8BE
:10050000F08100000000002072B6FEE72DE9F843FC
:1005100004464FF00009CDF8009063484FF416519F
:10052000A56D0068B0FBF1F72E6894F85C10082008
:1005300000FA01F131420FD021680A6852070BD549
:100540000A6822F004020A6094F85C108840A860EF
:10055000606D40F00100606594F85C104FF0010898
:1005600008FA01F0304208D021684969090604D52B
:10057000A860606D40F00200606594F85C10042093
:100580008840304208D021680968890704D5A860EE
:10059000606D40F00400606594F85C1010208840A5
:1005A000304218D021680968090714D5A86020686E
:1005B0000168490304D50068000308D5A16C07E071
:1005C0000168C90503D4016821F008010160216CAC
:1005D00009B12046884794F85C10202088403042BA
:1005E00031D021680968C9062DD5A86094F8350076
:1005F00005282068016806D0490347D50068000334
:100600001DD4616C1CE021F0160101602068416975
:1006100021F080014161206C08B9A06C20B12068F4
:10062000016821F00801016094F85C103F208840C7
:10063000A86084F8358084F83490216D1FE0E16B68
:1006400009B120468847606D00282BD0606DC00737
:1006500014D0052084F835002068016821F00101DC
:1006600001600098401C0090B84203D820680068E0
:10067000C007F6D184F8358084F83490E16C002905
:1006800010D001B02046BDE8F04308470168C90515
:10069000D5D4016821F01001016084F8358084F818
:1006A0003490CCE7BDE8F883180000202DE9F04134
:1006B000044600F071F906465CB1022084F835006A
:1006C000002584F834502068016821F001010160A0
:1006D0000DE00120BDE8F08100F05EF9801B0528E7
:1006E00005D920206065032084F83500F2E72068F2
:1006F0000068C007F0D12268116820480140D4E9A1
:1007000001031843D4E9033633431843636918439C
:10071000A3691843E3691843236A18430843616ACD
:10072000042903D1D4E90B1319430843106020684E
:100730004069666A20F0070130460E43012704280D
:100740000CD1A06A0643E06A40B12046FFF798FE4C
:1007500020B14020606584F83570BAE720684661B2
:100760002046FFF779FE94F85C203F21914081609C
:10077000656584F835700020ACE700003F8010F01C
:1007800070B5044600F008F90546601C02D0044824
:100790000078044400F000F9401BA042FAD370BD79
:1007A0000C0000202DE9F84FDFF8B8A10022012449
:1007B00003254FF00F090AF1040BAAF1040E00BF44
:1007C0000B6804FA02F63340B34273D10F7907F095
:1007D0000307012F01D0022F16D187684FEA420884
:1007E00005FA08FC27EA0C07D1F80CC00CFA08FC43
:1007F0004CEA070CC0F808C04768B7430E79C6F347
:10080000001696403E4346600E79F643B6070DD07B
:10081000C768560005FA06FC27EA0C07D1F808C09D
:100820000CFA06FC4CEA070CC0F80CC00E7906F076
:100830000306022E10D1D60800EB8608D8F82060F7
:1008400057074FEAD76C09FA0CF7BE430F6907FA4E
:100850000CF73743C8F8207006684FEA420C05FAD7
:100860000CF7BE430F7907F0030707FA0CF737437D
:1008700007604E6816F4403F6DD03B4E376847F432
:1008800080473760366822F0030706F480460096FA
:10089000364E07EB060CDCF8086897073F0F09FA9D
:1008A00007F826EA0806DFF8C880404503D14FF074
:1008B00000081EE04FE0DFF8BC80404502D14FF059
:1008C000010816E0DFF8B080404502D14FF0020881
:1008D0000FE0DFF8A880404502D14FF0030808E0A0
:1008E000DFF89C80404502D14FF0040801E04FF052
:1008F000070808FA07F848EA0608CCF80888DAF882
:1009000000605746D1F804C09E435FEACC2C00D566
:100910001E433E60DBF800605F46D1F804C09E4392
:100920005FEA8C2C00D51E433E60DEF800607746FF
:10093000D1F804C09E435FEA8C3C00D51E433E6064
:10094000084F083F3E68D1F804C09E435FEACC3CA4
:1009500000D51E433E60521C102AFFF431AFBDE8A3
:10096000F88F0000083C014044380240003001404C
:10097000000002400004024000080240000C024057
:10098000001002400069084000D0012070470AB101
:10099000816170470904FBE70148806870470000E7
:1009A0000C00002002488168027811448160704781
:1009B0000C0000200B4810B5016841F40071016083
:1009C000016841F480610160016841F48071016057
:1009D000032000F06FF80F2000F006F800F024F874
:1009E000002010BD003C024070B50D4D04464FF490
:1009F0007A712878B1FBF0F00A490968B1FBF0F090
:100A000000F00AFB48B9102C07D200222146501EE4
:100A100000F030F800206C6070BD012070BD000057
:100A20000C000020180000200A4808B5016841F4B5
:100A300080410160006800F4804000900548001F7C
:100A4000016841F080510160006800F08050009022
:100A500008BD000044380240002809DB00F01F02F6
:100A6000012191404009800000F1E020C0F8001110
:100A700070470000F0B40E4B1B680C46C3F3022312
:100A8000C3F10705042D00D90425191D072901D23A
:100A9000002300E0DB1E012606FA05F1491E214075
:100AA00099409E40761E16403143F0BC00F01FBFB7
:100AB0000CED00E0064900F0070208684FF6FF035E
:100AC000184040EA0220034A1043086070470000C3
:100AD0000CED00E00000FA052DE9F0470E46050098
:100AE00065D0DFF81481D8F80000F7B200F00700F5
:100AF000B04207D288F80070D8F8000000F0070074
:100B0000B04254D128683D4C810712D5400703D527
:100B1000206840F4E05020602878000703D5206862
:100B200040F4604020602068A96820F0F00008438D
:100B300020602878C0072DD030496868083901281E
:100B400012D0022813D0032811D009688907002980
:100B50002DDA216821F0030101432160FFF71CFF1A
:100B6000814641F2883A0EE009688903EFE7096897
:100B70008901ECE7FFF710FFA0EB0901514502D90D
:100B80000320BDE8F0872068696800F00C00B0EB36
:100B9000810FEFD1D8F80010404601F00701B142B3
:100BA00007D90770006800F00700B04201D00120AB
:100BB000E7E72878400705D52068E96820F4E05089
:100BC000084320602878000706D52068296920F4AA
:100BD000604040EAC100206000F038F82168084A0F
:100BE000C1F30311515CC84006490860064800681B
:100BF000FFF7FAFE0020C4E7003C0240083802403C
:100C00005A1C000818000020100000200448054964
:100C100000680968044AC1F38221515CC8407047EA
:100C200018000020083802406A1C000804480549E2
:100C300000680968044AC1F34231515CC8407047FA
:100C400018000020083802406A1C0008154810B53A
:100C5000006810F00C02144813D04110042A0FD081
:100C6000082A0ED10F4C241F2268236802F03F028D
:100C70005B0207D52068C0F38810A0FB010106E0E5
:100C8000084610BD2168C1F38811A1FB00010023B3
:100C9000FFF7F2FA2168C1F30141491C4900B0FB9A
:100CA000F1F010BD083802400024F4002DE9F84F9F
:100CB00004006ED02078DFF84C93C007A9F104053A
:100CC0004AD009F104000168C1F38101012908D06B
:100CD0000068C0F3810002280AD1D9F80000400260
:100CE00006D52868800337D560680028E1D033E056
:100CF0006068B0F5803F10D0B0F5A02F286810D004
:100D000020F480302860286820F480202860606803
:100D1000A8B1FFF741FE06460DE0286840F4803098
:100D2000F4E740F480202860F7E700BFFFF734FEC7
:100D3000801B642873D828688003F7D50CE0FFF780
:100D40002BFE064605E000BFFFF726FE801B642849
:100D5000F0D828688003F7D42078DFF8AC828007C9
:100D60004FF0000A3ED5A748001D016811F00C0F96
:100D700008D00068C0F3810002280BD1D9F8000028
:100D8000400207D42868800716D5E068012800D102
:100D900012E033E1E068B8B10120C8F80000FFF7C5
:100DA000FBFD064605E000BFFFF7F6FD801B0228AD
:100DB000C0D828688007F7D52868216920F0F80096
:100DC00040EAC10028600DE0C8F800A0FFF7E4FD8C
:100DD000064604E0FFF7E0FD801B02281FD82868C4
:100DE0008007F7D42078000722D5864F87486169AD
:100DF000703771B101210160FFF7CEFD064604E0B6
:100E0000FFF7CAFD801B022809D838688007F7D58C
:100E10000EE0C0F800A0FFF7BFFD064605E082E047
:100E2000FFF7BAFD801B02287DD838688007F7D409
:100E30002078400768D5DFF8CCB100270BF13C0BD8
:100E4000DBF80000C0000BD4DBF8001041F080514B
:100E5000CBF80010DBF80000012700F08050009074
:100E60006B4E3068C00510D4306840F4807030603C
:100E7000FFF792FD009005E0FFF78EFD0099401A04
:100E8000022850D83068C005F6D55E4EA0686C3692
:100E900001280FD00528306810D020F00100306004
:100EA000306820F004003060A068B8B1FFF774FD2E
:100EB00000900FE0306840F00100F4E740F00400DB
:100EC0003060F7E7FFF768FD0099411A41F288307A
:100ED000814266D830688007F4D50EE0FFF75CFDEC
:100EE000009007E0FFF758FD0099411A41F2883061
:100EF000814256D830688007F4D42FB1DBF8001057
:100F000021F08051CBF80010A069C8B33D49091DFC
:100F10000968C1F3810102294AD00228504607D04E
:100F2000C8F8600000E03CE0FFF736FD04463BE017
:100F30004746C8F86000FFF72FFD064605E000BFF2
:100F4000FFF72AFD801B02282BD828688001F7D4E0
:100F5000D4E907010843A16A2E4A490802EB01417E
:100F6000626A41EA8211084394F82C1040EA016158
:100F7000C9F8001001203866FFF70EFD044606E0B0
:100F80003EE000BFFFF708FD001B022809D82868D3
:100F90008001F7D534E000BFFFF7FEFC001B0228FC
:100FA00002D90320BDE8F88F28688001F4D427E037
:100FB0000128F7D0D9F80000E26900F480019142DD
:100FC0001CD1226A00F03F01914217D147F6C0714F
:100FD000626A0140B1EB821F10D1A26A4FF0FF3369
:100FE00000F4403103EB5202B1EB024F06D194F80A
:100FF0002C1000F07060B0EB016F01D00120D1E740
:101000000020CFE70438024000004742800E4742EC
:10101000007000400000FFFF10B5401EB0F1807F5F
:1010200001D3012010BD4FF0E02460610F21601753
:1010300000F05DFC0020A06107202061002010BDB1
:101040007047704710B5040003D094F83D0010B10C
:1010500007E0012010BD002084F83C00204600F08D
:101060001FF8022084F83D00211D206800F066FB77
:10107000012084F8460084F83E0084F83F0084F89C
:10108000400084F8410084F8420084F8430084F86A
:10109000440084F8450084F83D00002010BD0000A5
:1010A00008B500680B49884212D10B48016841F429
:1010B000003101600068002200F400300090114609
:1010C0001920FFF7D7FCBDE808401920FFF7C4BC82
:1010D00008BD0000004401404438024090F83D1033
:1010E000012901D001207047022180F83D100168DC
:1010F000CA6842F00102CA6000680E4988420ED0F8
:10110000B0F1804F0BD00C49884208D00B4988427F
:1011100005D00B49884202D00A49884204D181682F
:1011200001F00701062903D0016841F001010160C7
:10113000002070470000014000040040000800400B
:10114000000C00400040014070472DE9F04104468A
:101150000068C66805694FF00007A90713D5B107F5
:1011600011D5F91E01610120207720688069800770
:10117000204602D0FFF7E8FF04E000F07EF82046AA
:1011800000F07CF82777680716D5700714D521681A
:101190006FF004000861022020772068806910F455
:1011A000407F204602D0FFF7CFFF04E000F065F853
:1011B000204600F063F82777280715D5300713D5A8
:1011C00021686FF008000861042020772068C0695A
:1011D0008007204602D0FFF7B7FF04E000F04DF88B
:1011E000204600F04BF82777E80616D5F00614D510
:1011F00021686FF010000861082020772068C0691E
:1012000010F4407F204602D0FFF79EFF04E000F07C
:1012100034F8204600F032F82777E80708D0F007C6
:1012200006D021686FF001000861204600F028F820
:10123000280608D5300606D521686FF080000861C1
:101240002046FFF7FDFE680608D5700606D5216822
:101250006FF040000861204600F08CF8A8060AD51F
:10126000B00608D521686FF0200008612046BDE86F
:10127000F041FFF7E6BEBDE8F0817047704700001F
:101280002DE9F0410068374988422FD1364C20784B
:10129000E8B101281BD0022828D14602334F31463D
:1012A0003846FFF76FFB0025C0B131463846FFF7DF
:1012B00069FB01281AD12079401CC0B22071012895
:1012C00016D02B4E032823D0072838D12FE0BDE8B5
:1012D000F0412549891C002000F0FEB8607908B96A
:1012E00001206071E078401CE0702571BDE8F0815C
:1012F0001F49E0783239012808D00328F6D162224C
:10130000A0790A54401CA071E570EFE76122F7E76D
:10131000E3791749581CE071A279A1F1320000F07D
:1013200067FB1348A1793238FFF782F8A571A079DD
:1013300020213154401CA071207A401C2072207959
:101340000728D3D9A079304400F8015CE079217AEC
:10135000401A072190FBF1F201FB120060726571E7
:10136000C4E70000004401400000002000000240EB
:10137000CE000020704770B5040004D094F84100FE
:10138000002510B106E0012070BD84F840502046D1
:1013900000F024F8242084F841002068C16821F47A
:1013A0000051C160204600F01BFA2068016921F459
:1013B000904101612068416921F02A014161206862
:1013C000C16841F40051C1606564202084F8410087
:1013D00084F842006563002070BD00002DE9F041F3
:1013E00086B0064614216846FEF7BDFF2B493068DB
:1013F000884250D12A480024016841F4003101603C
:10140000006800F40030059025481038016841F06C
:10141000010101600068694600F0010005900C20A0
:1014200000900220CDE901040320039007200490DE
:101430001C48FFF7B7F91D4D1B484FF000672860A7
:10144000C5E901744FF48068C5E903486C61AC617B
:10145000EC612C6228466C62FFF728F908B1FFF7AF
:1014600053F8F563AE63114D0F4860351830E5E869
:1014700002074020A5E811010C4845F814496030E6
:10148000AC61EC612C626C62FFF710F908B1FFF7F8
:101490003BF8B563AE6306B0BDE8F08100440040A0
:1014A00040380240000002408860024028020020CC
:1014B000FEE7000010B5074C04EB001001608280CD
:1014C000837100210172C17141728172C172017315
:1014D00010BD00001C0000202DE9F0410D461C4904
:1014E000012601EB0014E07960B10027012813D038
:1014F00002280FD1E07AE8B1401E10F0FF00E07240
:1015000018D019E0A1882068FFF73CFAA179884239
:1015100000D1E671BDE8F081A1882068FFF732FABA
:10152000A179884204D16420E0720220E071F1E7E1
:10153000E771EFE703202870A1882068FFF722FAFF
:10154000A1798842E6D0E07A0028F1D02E70EFE74A
:101550001C0000200D4808B5016841F4001101602D
:101560000068002200F40010009011461020FFF7E0
:1015700081FA1020FFF770FA002211461120FFF7C0
:1015800079FABDE808401120FFF766BA303802400A
:1015900030B587B014216846FEF7E5FE1B480024ED
:1015A000016841F004010160016801F00401059146
:1015B000016841F080010160016801F0800105913E
:1015C000016841F00101016000684FF4881500F0E6
:1015D000010005904FF40050CDE9000569460294E2
:1015E0000B48FFF7DFF82020CDE90005094D6946DB
:1015F00002942846FFF7D6F82815CDE9000469467D
:1016000028460294FFF7CEF807B030BD30380240CC
:1016100000080240000002400B4810B50949016073
:1016200042F20F71416000216322C0E902120161A0
:101630008161FFF707FD002803D0BDE81040FEF7E9
:1016400063BF10BD00440140980100200C4810B554
:101650000A4901604FF4E1314160002181600C22B0
:10166000C160C0E904128161C161FFF784FE0028F6
:1016700003D0BDE81040FEF747BF10BD0044004056
:10168000E0010020FEE7FEE770477047FFF78AB9E8
:1016900030B593B030216846FEF765FE14210CA8E2
:1016A000FEF761FE1C480025016841F08051016091
:1016B000006800F0805011901848016841F44041E2
:1016C00001600068022400F4404011900120009065
:1016D0004FF4A02001906005CDE9064008AA04203F
:1016E000642182E813000B906846FFF7DFFA08B127
:1016F00072B6FEE70CA90F2081E831004FF480504C
:10170000CDE90F0503210CA8FFF7E6F9002801D069
:1017100072B6FEE713B030BD4038024000700040A2
:101720000248016841F470010160704788ED00E0F3
:101730000148FFF70ABD000098010020F0B50268DB
:10174000204B214C9F03214D214E984207D0B84297
:1017500005D0A04203D0A84201D0B04204D122F06B
:10176000700C4A6842EA0C02984210D0B8420ED07F
:10177000A0420CD0A8420AD0B04208D0154CA042DA
:1017800005D0154CA04202D0144CA04203D122F443
:101790004074CA6822434C6922F0800222430260EE
:1017A0008A68C2620A688262984201D1096901634B
:1017B000012141610169C90703D0016921F00101DB
:1017C0000161F0BD0000014000040040000800403D
:1017D000000C00400040014000440140004801402E
:1017E00070B5044600680169E26821F44051114374
:1017F00001612169A068E2690843616911430843F6
:101800002168CA6849F20C639A430243CA6020689F
:101810004169A26921F44071114341613149206855
:10182000884202D03049884202D1FFF7FFF901E037
:10183000FFF7ECF9E2690023192164253226B2F59D
:10184000004F626828D0A0FB0101930F9200FEF7C1
:1018500013FD0146B0FBF5F06FF01802504301EBA9
:10186000800006EB0010B0FBF5F000F0F002B1FBD9
:10187000F5F002EB0012B1FBF5F06FF018035843DE
:1018800001EB800006EB0010B0FBF5F000F00F005C
:1018900021681044886070BDA0FB010192185B4173
:1018A000FEF7EAFC0146B0FBF5F00201B1FBF5F0F2
:1018B0006FF01803584301EB800006EBC000B0FB4B
:1018C000F5F000F0F80002EB4002B1FBF5F05843F0
:1018D00001EB800006EBC000B0FBF5F000F0070064
:1018E000D6E700000010014000140140FEE70907A0
:1018F000090E002804DB00F1E02080F80014704796
:1019000000F00F0000F1E02080F8141D704730B5A2
:10191000002306E0C45CCD5CAC4201D0002030BDA9
:101920005B1C9342F6DB012030BD0000FFF742F85C
:10193000FFF7AEFEFFF72CFEFFF70CFEFFF786FE6B
:10194000FFF76AFE26496FF0010009680861244824
:10195000FFF7C4FB00234FF4005222491846FFF75B
:10196000A9FD214C214D20780028FCD1A078012828
:1019700002D0032808D009E06078022801D2401C78
:1019800000E00020607001E0012020706078B0B1BC
:1019900001281CD00228E6D1012220212846FEF78A
:1019A000F6FF40F6B8363046FEF796FD00222021BD
:1019B0002846FEF7ECFF3046FEF78EFDD3E7012206
:1019C00020212846FEF7E3FF4FF47A76EBE7012269
:1019D00020212846FEF7DBFF4FF4FA66E3E700001C
:1019E0009801002000080240000000200000024092
:1019F00070B51C460D460646012A64D0022A75D0F1
:101A0000032A71D0042A70D169A1FFF780FF08B1C1
:101A100062202855042268A13046FFF778FF08B1FC
:101A200063202855042266A13046FFF770FF08B1F5
:101A300066202855042264A13046FFF768FF08B1EC
:101A400068202855042262A13046FFF760FF08B1E4
:101A50006A202855042260A13046FFF758FF08B1DC
:101A60006C20285504225EA13046FFF750FF08B1D4
:101A70007020285504225CA13046FFF748FF08B1CA
:101A80007120285504225AA13046FFF740FF08B1C3
:101A900076202855042258A13046FFF738FF08B1B8
:101AA00078202855042256A13046FFF730FF08B1B0
:101AB00079202855042254A13046FFF728FF00283A
:101AC00034D07A2031E0012251A1FFF720FF08B184
:101AD0006520285501224FA13046FFF718FF002846
:101AE00024D0742021E001E021E01FE002224AA17D
:101AF000FFF70DFF08B161202855022247A13046AB
:101B0000FFF705FF08B169202855022244A130469D
:101B1000FFF7FDFE08B16D202855022241A1304695
:101B2000FFF7F5FE002801D06E20285570BD032276
:101B30003DA1FFF7ECFE08B16420285503223BA12C
:101B40003046FFF7E4FE08B167202855032238A18C
:101B50003046FFF7DCFE08B16B202855032235A183
:101B60003046FFF7D4FE08B16F202855032232A17A
:101B70003046FFF7CCFE08B17220285503222FA172
:101B80003046FFF7C4FE08B17320285503222CA16C
:101B90003046FFF7BCFE08B175202855032229A165
:101BA0003046FFF7B4FE0028C0D07720BDE7000024
:101BB000626161610000000062616261000000001A
:101BC000616162610000000061616161000000000C
:101BD00061626262000000006162616100000000F9
:101BE00061626261000000006262616200000000E8
:101BF00061616162000000006261616200000000DA
:101C000062616262000000006262616100000000C7
:101C1000610000006200000061620000616100007C
:101C200062620000626100006261610062626100E4
:101C30006261620062626200616261006161610012
:101C400061616200616262004FF04070E1EE100A73
:101C50007047000610160006101600000000000075
:101C60000000010203040607080900000000010249
:101C700003040000941C0008000000201C00000069
:101C8000D4010008B01C00081C0000202C09000032
:101C9000F00100080000000000000000000000004B
:101CA0000100000010000000000000000024F4000B
:040000050800019955
:00000001FF
